{
    "contractName": "Time",
    "abi": [
        {
            "inputs": [],
            "name": "getTime",
            "outputs": [
                {
                    "internalType": "uint256",
                    "name": "",
                    "type": "uint256"
                }
            ],
            "stateMutability": "view",
            "type": "function"
        }
    ],
    "bytecode": "6080604052348015600f57600080fd5b50607680601d6000396000f3fe6080604052348015600f57600080fd5b506004361060285760003560e01c8063557ed1ba14602d575b600080fd5b4260405190815260200160405180910390f3fea2646970667358221220831715740550688d74080b85a12b400f957d97a8b0b278da4f2ea8288c46a1fc64736f6c634300080a0033",
    "sourcePath": "c:/Users/yanni/OneDrive/Documents/Formationblockchain/Chapitre 3 - Solidity/Contracts/4_Time.sol",
    "compiler": {
        "name": "solc",
        "version": "0.8.10+commit.fc410830"
    },
    "functionHashes": {
        "getTime()": "557ed1ba"
    },
    "gasEstimates": {
        "creation": {
            "codeDepositCost": "23600",
            "executionCost": "75",
            "totalCost": "23675"
        },
        "external": {
            "getTime()": "145"
        }
    }
}