{
    "contractName": "Whitelist",
    "abi": [
        {
            "anonymous": false,
            "inputs": [
                {
                    "indexed": false,
                    "internalType": "address",
                    "name": "_address",
                    "type": "address"
                }
            ],
            "name": "authorized",
            "type": "event"
        },
        {
            "stateMutability": "payable",
            "type": "fallback"
        },
        {
            "inputs": [
                {
                    "internalType": "uint256",
                    "name": "",
                    "type": "uint256"
                }
            ],
            "name": "People",
            "outputs": [
                {
                    "internalType": "string",
                    "name": "name",
                    "type": "string"
                },
                {
                    "internalType": "uint256",
                    "name": "age",
                    "type": "uint256"
                }
            ],
            "stateMutability": "view",
            "type": "function"
        },
        {
            "inputs": [
                {
                    "internalType": "string",
                    "name": "_name",
                    "type": "string"
                },
                {
                    "internalType": "uint256",
                    "name": "_age",
                    "type": "uint256"
                }
            ],
            "name": "add",
            "outputs": [],
            "stateMutability": "nonpayable",
            "type": "function"
        },
        {
            "inputs": [
                {
                    "internalType": "string",
                    "name": "_name",
                    "type": "string"
                },
                {
                    "internalType": "uint256",
                    "name": "_age",
                    "type": "uint256"
                }
            ],
            "name": "addPerson1",
            "outputs": [
                {
                    "components": [
                        {
                            "internalType": "string",
                            "name": "name",
                            "type": "string"
                        },
                        {
                            "internalType": "uint256",
                            "name": "age",
                            "type": "uint256"
                        }
                    ],
                    "internalType": "struct Whitelist.Person",
                    "name": "",
                    "type": "tuple"
                }
            ],
            "stateMutability": "pure",
            "type": "function"
        },
        {
            "inputs": [
                {
                    "internalType": "string",
                    "name": "_name",
                    "type": "string"
                },
                {
                    "internalType": "uint256",
                    "name": "_age",
                    "type": "uint256"
                }
            ],
            "name": "addPerson2",
            "outputs": [],
            "stateMutability": "pure",
            "type": "function"
        },
        {
            "inputs": [
                {
                    "internalType": "string",
                    "name": "_name",
                    "type": "string"
                },
                {
                    "internalType": "uint256",
                    "name": "_age",
                    "type": "uint256"
                }
            ],
            "name": "addPersonAlyra",
            "outputs": [],
            "stateMutability": "pure",
            "type": "function"
        },
        {
            "inputs": [],
            "name": "remove",
            "outputs": [],
            "stateMutability": "nonpayable",
            "type": "function"
        },
        {
            "stateMutability": "payable",
            "type": "receive"
        }
    ],
    "bytecode": "608060405234801561001057600080fd5b506105da806100206000396000f3fe6080604052600436106100565760003560e01c80630e9993df1461005f57806336555b851461008f578063a7f43779146100af578063c6a890b8146100c4578063c7fb34681461011c578063dec7e5441461014a57005b3661005d57005b005b34801561006b57600080fd5b5061005d61007a3660046103e4565b60408051808201909152918252602090910152565b34801561009b57600080fd5b5061005d6100aa3660046103e4565b61018b565b3480156100bb57600080fd5b5061005d6101fd565b3480156100d057600080fd5b506101066100df3660046103e4565b60408051808201825260608152600060209182015281518083019092529281529182015290565b60405161011391906104e6565b60405180910390f35b34801561012857600080fd5b5061013c610137366004610518565b61023c565b604051610113929190610531565b34801561015657600080fd5b5061005d6101653660046103e4565b604080518082018252606081526000602091820152815180830190925292815290910152565b60408051808201909152828152602080820183905260018054808201825560009190915282518051849360029093027fb10e2d527612073b26eecdfd717e6a320cf44b4afac2b0732d9fcbe2b7fa0cf601926101eb9284929101906102f8565b50602082015181600101555050505050565b600180548061020e5761020e610553565b6000828152602081206000199092019160028302019061022e828261037c565b600182016000905550509055565b6001818154811061024c57600080fd5b906000526020600020906002020160009150905080600001805461026f90610569565b80601f016020809104026020016040519081016040528092919081815260200182805461029b90610569565b80156102e85780601f106102bd576101008083540402835291602001916102e8565b820191906000526020600020905b8154815290600101906020018083116102cb57829003601f168201915b5050505050908060010154905082565b82805461030490610569565b90600052602060002090601f016020900481019282610326576000855561036c565b82601f1061033f57805160ff191683800117855561036c565b8280016001018555821561036c579182015b8281111561036c578251825591602001919060010190610351565b506103789291506103b9565b5090565b50805461038890610569565b6000825580601f10610398575050565b601f0160209004906000526020600020908101906103b691906103b9565b50565b5b8082111561037857600081556001016103ba565b634e487b7160e01b600052604160045260246000fd5b600080604083850312156103f757600080fd5b823567ffffffffffffffff8082111561040f57600080fd5b818501915085601f83011261042357600080fd5b813581811115610435576104356103ce565b604051601f8201601f19908116603f0116810190838211818310171561045d5761045d6103ce565b8160405282815288602084870101111561047657600080fd5b826020860160208301376000602093820184015298969091013596505050505050565b6000815180845260005b818110156104bf576020818501810151868301820152016104a3565b818111156104d1576000602083870101525b50601f01601f19169290920160200192915050565b6020815260008251604060208401526105026060840182610499565b9050602084015160408401528091505092915050565b60006020828403121561052a57600080fd5b5035919050565b6040815260006105446040830185610499565b90508260208301529392505050565b634e487b7160e01b600052603160045260246000fd5b600181811c9082168061057d57607f821691505b6020821081141561059e57634e487b7160e01b600052602260045260246000fd5b5091905056fea264697066735822122062b41bf9e3ae6a654aace21652069204e591cfa19a4cd3238135a02c26fe5a2464736f6c634300080a0033",
    "sourcePath": "c:/Users/yanni/OneDrive/Documents/Formationblockchain/Chapitre 3 - Solidity/Contracts/1_WhiteList.sol",
    "compiler": {
        "name": "solc",
        "version": "0.8.10+commit.fc410830"
    },
    "functionHashes": {
        "People(uint256)": "c7fb3468",
        "add(string,uint256)": "36555b85",
        "addPerson1(string,uint256)": "c6a890b8",
        "addPerson2(string,uint256)": "dec7e544",
        "addPersonAlyra(string,uint256)": "0e9993df",
        "remove()": "a7f43779"
    },
    "gasEstimates": {
        "creation": {
            "codeDepositCost": "299600",
            "executionCost": "337",
            "totalCost": "299937"
        },
        "external": {
            "": "183",
            "People(uint256)": "infinite",
            "add(string,uint256)": "infinite",
            "addPerson1(string,uint256)": "infinite",
            "addPerson2(string,uint256)": "infinite",
            "addPersonAlyra(string,uint256)": "infinite",
            "remove()": "infinite"
        }
    }
}