{
    "contractName": "admin",
    "abi": [
        {
            "anonymous": false,
            "inputs": [
                {
                    "indexed": false,
                    "internalType": "address",
                    "name": "_address",
                    "type": "address"
                }
            ],
            "name": "Blacklisted",
            "type": "event"
        },
        {
            "anonymous": false,
            "inputs": [
                {
                    "indexed": true,
                    "internalType": "address",
                    "name": "previousOwner",
                    "type": "address"
                },
                {
                    "indexed": true,
                    "internalType": "address",
                    "name": "newOwner",
                    "type": "address"
                }
            ],
            "name": "OwnershipTransferred",
            "type": "event"
        },
        {
            "anonymous": false,
            "inputs": [
                {
                    "indexed": false,
                    "internalType": "address",
                    "name": "_address",
                    "type": "address"
                }
            ],
            "name": "Whitelisted",
            "type": "event"
        },
        {
            "inputs": [
                {
                    "internalType": "address",
                    "name": "_address",
                    "type": "address"
                }
            ],
            "name": "blacklist",
            "outputs": [],
            "stateMutability": "nonpayable",
            "type": "function"
        },
        {
            "inputs": [],
            "name": "isBlacklisted",
            "outputs": [
                {
                    "internalType": "address",
                    "name": "",
                    "type": "address"
                }
            ],
            "stateMutability": "nonpayable",
            "type": "function"
        },
        {
            "inputs": [],
            "name": "isWhitelisted",
            "outputs": [
                {
                    "internalType": "address",
                    "name": "",
                    "type": "address"
                }
            ],
            "stateMutability": "nonpayable",
            "type": "function"
        },
        {
            "inputs": [],
            "name": "owner",
            "outputs": [
                {
                    "internalType": "address",
                    "name": "",
                    "type": "address"
                }
            ],
            "stateMutability": "view",
            "type": "function"
        },
        {
            "inputs": [],
            "name": "renounceOwnership",
            "outputs": [],
            "stateMutability": "nonpayable",
            "type": "function"
        },
        {
            "inputs": [
                {
                    "internalType": "address",
                    "name": "newOwner",
                    "type": "address"
                }
            ],
            "name": "transferOwnership",
            "outputs": [],
            "stateMutability": "nonpayable",
            "type": "function"
        },
        {
            "inputs": [
                {
                    "internalType": "address",
                    "name": "_address",
                    "type": "address"
                }
            ],
            "name": "whitelist",
            "outputs": [],
            "stateMutability": "nonpayable",
            "type": "function"
        }
    ],
    "bytecode": "60806040526000600355600060045534801561001a57600080fd5b5061002433610029565b610079565b600080546001600160a01b038381166001600160a01b0319831681178455604051919092169283917f8be0079c531659141344cd1fd0a4f28419497f9722a3daafe3b4186f6b6457e09190a35050565b61061c806100886000396000f3fe608060405234801561001057600080fd5b506004361061007d5760003560e01c80639b19251a1161005b5780639b19251a146100c1578063a94d8811146100d4578063f2fde38b146100dc578063f9f92be4146100ef57600080fd5b8063611b409514610082578063715018a6146100a65780638da5cb5b146100b0575b600080fd5b61008a610102565b6040516001600160a01b03909116815260200160405180910390f35b6100ae6101ee565b005b6000546001600160a01b031661008a565b6100ae6100cf366004610504565b610224565b61008a6102d2565b6100ae6100ea366004610504565b610371565b6100ae6100fd366004610504565b61040c565b6001546000906101595760405162461bcd60e51b815260206004820152601760248201527f4e6f626f64792069732077686974656c6973746564202100000000000000000060448201526064015b60405180910390fd5b60016003600082825461016c919061054a565b909155505060018054610180908290610562565b60035460408051426020820152339181019190915260608101919091526080015b6040516020818303038152906040528051906020012060001c6101c49190610579565b815481106101d4576101d461059b565b6000918252602090912001546001600160a01b0316919050565b6000546001600160a01b031633146102185760405162461bcd60e51b8152600401610150906105b1565b61022260006104b4565b565b6000546001600160a01b0316331461024e5760405162461bcd60e51b8152600401610150906105b1565b6001805480820182556000919091527fb10e2d527612073b26eecdfd717e6a320cf44b4afac2b0732d9fcbe2b7fa0cf60180546001600160a01b0319166001600160a01b0383169081179091556040519081527faab7954e9d246b167ef88aeddad35209ca2489d95a8aeb59e288d9b19fae5a54906020015b60405180910390a150565b6002546000906103245760405162461bcd60e51b815260206004820152601760248201527f4e6f626f647920697320626c61636b6c697374656420210000000000000000006044820152606401610150565b600160046000828254610337919061054a565b90915550506002805461034c90600190610562565b60045460408051426020820152339181019190915260608101919091526080016101a1565b6000546001600160a01b0316331461039b5760405162461bcd60e51b8152600401610150906105b1565b6001600160a01b0381166104005760405162461bcd60e51b815260206004820152602660248201527f4f776e61626c653a206e6577206f776e657220697320746865207a65726f206160448201526564647265737360d01b6064820152608401610150565b610409816104b4565b50565b6000546001600160a01b031633146104365760405162461bcd60e51b8152600401610150906105b1565b600280546001810182556000919091527f405787fa12a823e0f2b7631cc41b3ba8828b3321ca811111fa75cd3aa3bb5ace0180546001600160a01b0319166001600160a01b0383169081179091556040519081527fffa4e6181777692565cf28528fc88fd1516ea86b56da075235fa575af6a4b855906020016102c7565b600080546001600160a01b038381166001600160a01b0319831681178455604051919092169283917f8be0079c531659141344cd1fd0a4f28419497f9722a3daafe3b4186f6b6457e09190a35050565b60006020828403121561051657600080fd5b81356001600160a01b038116811461052d57600080fd5b9392505050565b634e487b7160e01b600052601160045260246000fd5b6000821982111561055d5761055d610534565b500190565b60008282101561057457610574610534565b500390565b60008261059657634e487b7160e01b600052601260045260246000fd5b500690565b634e487b7160e01b600052603260045260246000fd5b6020808252818101527f4f776e61626c653a2063616c6c6572206973206e6f7420746865206f776e657260408201526060019056fea26469706673582212205db15757bc87b060ad3e1f4986c422787b349a996cc0cba9f564aee18b67f54764736f6c634300080c0033",
    "sourcePath": "c:/Users/yanni/Documents/Formation Alyra/Solidity/Solidity/src/13_AdminBis.sol",
    "compiler": {
        "name": "solc",
        "version": "0.8.12+commit.f00d7308"
    },
    "functionHashes": {
        "blacklist(address)": "f9f92be4",
        "isBlacklisted()": "a94d8811",
        "isWhitelisted()": "611b4095",
        "owner()": "8da5cb5b",
        "renounceOwnership()": "715018a6",
        "transferOwnership(address)": "f2fde38b",
        "whitelist(address)": "9b19251a"
    },
    "gasEstimates": {
        "creation": {
            "codeDepositCost": "312800",
            "executionCost": "36202",
            "totalCost": "349002"
        },
        "external": {
            "blacklist(address)": "52043",
            "isBlacklisted()": "35500",
            "isWhitelisted()": "35468",
            "owner()": "2364",
            "renounceOwnership()": "28137",
            "transferOwnership(address)": "28318",
            "whitelist(address)": "51966"
        }
    }
}