{
    "contractName": "Bank",
    "abi": [
        {
            "anonymous": false,
            "inputs": [
                {
                    "indexed": false,
                    "internalType": "uint256",
                    "name": "_amount",
                    "type": "uint256"
                }
            ],
            "name": "_deposit",
            "type": "event"
        },
        {
            "anonymous": false,
            "inputs": [
                {
                    "indexed": false,
                    "internalType": "address",
                    "name": "_recipient",
                    "type": "address"
                },
                {
                    "indexed": false,
                    "internalType": "uint256",
                    "name": "_amount",
                    "type": "uint256"
                }
            ],
            "name": "_transfer",
            "type": "event"
        },
        {
            "inputs": [
                {
                    "internalType": "address",
                    "name": "_address",
                    "type": "address"
                }
            ],
            "name": "balanceOf",
            "outputs": [
                {
                    "internalType": "uint256",
                    "name": "",
                    "type": "uint256"
                }
            ],
            "stateMutability": "view",
            "type": "function"
        },
        {
            "inputs": [
                {
                    "internalType": "uint256",
                    "name": "_amount",
                    "type": "uint256"
                }
            ],
            "name": "deposit",
            "outputs": [],
            "stateMutability": "nonpayable",
            "type": "function"
        },
        {
            "inputs": [
                {
                    "internalType": "address",
                    "name": "_recipient",
                    "type": "address"
                },
                {
                    "internalType": "uint256",
                    "name": "_amount",
                    "type": "uint256"
                }
            ],
            "name": "transfer",
            "outputs": [],
            "stateMutability": "nonpayable",
            "type": "function"
        }
    ],
    "bytecode": "608060405234801561001057600080fd5b506103b2806100206000396000f3fe608060405234801561001057600080fd5b50600436106100415760003560e01c806370a0823114610046578063a9059cbb14610081578063b6b55f2514610096575b600080fd5b61006f610054366004610239565b6001600160a01b031660009081526020819052604090205490565b60405190815260200160405180910390f35b61009461008f36600461025b565b6100a9565b005b6100946100a4366004610285565b610186565b336100cf5760405162461bcd60e51b81526004016100c69061029e565b60405180910390fd5b600081116100ef5760405162461bcd60e51b81526004016100c6906102e3565b336000908152602081905260408120805483929061010e90849061034d565b90915550506001600160a01b0382166000908152602081905260408120805483929061013b908490610364565b9091555050604080516001600160a01b0384168152602081018390527f4847a79ce4f2dbe62790473e68c777ca7c64e32747117d5cfe78d28c31d0ed97910160405180910390a15050565b336101a35760405162461bcd60e51b81526004016100c69061029e565b600081116101c35760405162461bcd60e51b81526004016100c6906102e3565b33600090815260208190526040812080548392906101e2908490610364565b90915550506040518181527f9213b124ef0123fea75442003792797a5bf69c1844526bdc406d3e452afae5c79060200160405180910390a150565b80356001600160a01b038116811461023457600080fd5b919050565b60006020828403121561024b57600080fd5b6102548261021d565b9392505050565b6000806040838503121561026e57600080fd5b6102778361021d565b946020939093013593505050565b60006020828403121561029757600080fd5b5035919050565b60208082526025908201527f5a65726f20616464726573732063616e6e6f742065786563757465206465706f604082015264736974202160d81b606082015260800190565b60208082526034908201527f4465706f73697420616d6f756e742063616e6e6f74206265206e65676174697660408201527365206f7220657175616c20746f207a65726f202160601b606082015260800190565b634e487b7160e01b600052601160045260246000fd5b60008282101561035f5761035f610337565b500390565b6000821982111561037757610377610337565b50019056fea2646970667358221220eb27820e3b823e629c54f4cef026ba963032c64784cee0b8c88c921e37c6bb1964736f6c634300080b0033",
    "sourcePath": "c:/Users/yanni/OneDrive/Documents/Formationblockchain/Chapitre 3 - Solidity/Contracts/src/Bank.sol",
    "compiler": {
        "name": "solc",
        "version": "0.8.11+commit.d7f03943"
    },
    "functionHashes": {
        "balanceOf(address)": "70a08231",
        "deposit(uint256)": "b6b55f25",
        "transfer(address,uint256)": "a9059cbb"
    },
    "gasEstimates": {
        "creation": {
            "codeDepositCost": "189200",
            "executionCost": "232",
            "totalCost": "189432"
        },
        "external": {
            "balanceOf(address)": "2506",
            "deposit(uint256)": "25710",
            "transfer(address,uint256)": "50472"
        }
    }
}