{
    "contractName": "Choice",
    "abi": [
        {
            "inputs": [
                {
                    "internalType": "uint256",
                    "name": "_myuint",
                    "type": "uint256"
                }
            ],
            "name": "add",
            "outputs": [],
            "stateMutability": "nonpayable",
            "type": "function"
        },
        {
            "inputs": [],
            "name": "get",
            "outputs": [
                {
                    "internalType": "uint256",
                    "name": "",
                    "type": "uint256"
                }
            ],
            "stateMutability": "view",
            "type": "function"
        }
    ],
    "bytecode": "608060405234801561001057600080fd5b5060c68061001f6000396000f3fe6080604052348015600f57600080fd5b506004361060325760003560e01c80631003e2d21460375780636d4ce63c146056575b600080fd5b605460423660046078565b33600090815260208190526040902055565b005b3360009081526020819052604090205460405190815260200160405180910390f35b600060208284031215608957600080fd5b503591905056fea264697066735822122058c525ea6097b22d0af0b69fb9032991f1eaf92900cdc34e45a9299a7dc9942f64736f6c634300080b0033",
    "sourcePath": "c:/Users/yanni/OneDrive/Documents/Formationblockchain/Chapitre 3 - Solidity/Contracts/src/5_Choice.sol",
    "compiler": {
        "name": "solc",
        "version": "0.8.11+commit.d7f03943"
    },
    "functionHashes": {
        "add(uint256)": "1003e2d2",
        "get()": "6d4ce63c"
    },
    "gasEstimates": {
        "creation": {
            "codeDepositCost": "39600",
            "executionCost": "93",
            "totalCost": "39693"
        },
        "external": {
            "add(uint256)": "22361",
            "get()": "2339"
        }
    }
}