{
    "contractName": "Crowdsale",
    "abi": [
        {
            "inputs": [
                {
                    "internalType": "uint256",
                    "name": "initialSupply",
                    "type": "uint256"
                }
            ],
            "stateMutability": "nonpayable",
            "type": "constructor"
        },
        {
            "inputs": [],
            "name": "rate",
            "outputs": [
                {
                    "internalType": "uint256",
                    "name": "",
                    "type": "uint256"
                }
            ],
            "stateMutability": "view",
            "type": "function"
        },
        {
            "inputs": [],
            "name": "token",
            "outputs": [
                {
                    "internalType": "contract ERC20Token",
                    "name": "",
                    "type": "address"
                }
            ],
            "stateMutability": "view",
            "type": "function"
        },
        {
            "stateMutability": "payable",
            "type": "receive"
        }
    ],
    "bytecode": "608060405260c860005534801561001557600080fd5b50604051610e76380380610e7683398101604081905261003491610097565b806040516100419061008a565b908152602001604051809103906000f080158015610063573d6000803e3d6000fd5b50600180546001600160a01b0319166001600160a01b0392909216919091179055506100b0565b610b98806102de83390190565b6000602082840312156100a957600080fd5b5051919050565b61021f806100bf6000396000f3fe60806040526004361061002d5760003560e01c80632c4e722e146100a9578063fc0c546a146100d257600080fd5b366100a45767016345785d8a00003410156100995760405162461bcd60e51b815260206004820152602260248201527f796f752063616e27742073656e74206c657373207468616e20302e312065746860448201526132b960f11b606482015260840160405180910390fd5b6100a23461010a565b005b600080fd5b3480156100b557600080fd5b506100bf60005481565b6040519081526020015b60405180910390f35b3480156100de57600080fd5b506001546100f2906001600160a01b031681565b6040516001600160a01b0390911681526020016100c9565b600080546101189083610193565b60015460405163a9059cbb60e01b8152336004820152602481018390529192506001600160a01b03169063a9059cbb906044016020604051808303816000875af115801561016a573d6000803e3d6000fd5b505050506040513d601f19601f8201168201806040525081019061018e91906101c0565b505050565b60008160001904831182151516156101bb57634e487b7160e01b600052601160045260246000fd5b500290565b6000602082840312156101d257600080fd5b815180151581146101e257600080fd5b939250505056fea2646970667358221220eebe966677c236987d19dd72229ed5b5ae3bca3446665ff73e3fc1be9dcdfb8864736f6c634300080c003360806040523480156200001157600080fd5b5060405162000b9838038062000b98833981016040819052620000349162000246565b60405180604001604052806005815260200164414c59524160d81b81525060405180604001604052806003815260200162414c5960e81b815250816003908051906020019062000086929190620001a0565b5080516200009c906004906020840190620001a0565b505050620000b13382620000b860201b60201c565b50620002c4565b6001600160a01b038216620001135760405162461bcd60e51b815260206004820152601f60248201527f45524332303a206d696e7420746f20746865207a65726f206164647265737300604482015260640160405180910390fd5b806002600082825462000127919062000260565b90915550506001600160a01b038216600090815260208190526040812080548392906200015690849062000260565b90915550506040518181526001600160a01b038316906000907fddf252ad1be2c89b69c2b068fc378daa952ba7f163c4a11628f55a4df523b3ef9060200160405180910390a35050565b828054620001ae9062000287565b90600052602060002090601f016020900481019282620001d257600085556200021d565b82601f10620001ed57805160ff19168380011785556200021d565b828001600101855582156200021d579182015b828111156200021d57825182559160200191906001019062000200565b506200022b9291506200022f565b5090565b5b808211156200022b576000815560010162000230565b6000602082840312156200025957600080fd5b5051919050565b600082198211156200028257634e487b7160e01b600052601160045260246000fd5b500190565b600181811c908216806200029c57607f821691505b60208210811415620002be57634e487b7160e01b600052602260045260246000fd5b50919050565b6108c480620002d46000396000f3fe608060405234801561001057600080fd5b50600436106100a95760003560e01c80633950935111610071578063395093511461012357806370a082311461013657806395d89b411461015f578063a457c2d714610167578063a9059cbb1461017a578063dd62ed3e1461018d57600080fd5b806306fdde03146100ae578063095ea7b3146100cc57806318160ddd146100ef57806323b872dd14610101578063313ce56714610114575b600080fd5b6100b66101c6565b6040516100c39190610701565b60405180910390f35b6100df6100da366004610772565b610258565b60405190151581526020016100c3565b6002545b6040519081526020016100c3565b6100df61010f36600461079c565b61026e565b604051601281526020016100c3565b6100df610131366004610772565b61031d565b6100f36101443660046107d8565b6001600160a01b031660009081526020819052604090205490565b6100b6610359565b6100df610175366004610772565b610368565b6100df610188366004610772565b610401565b6100f361019b3660046107fa565b6001600160a01b03918216600090815260016020908152604080832093909416825291909152205490565b6060600380546101d59061082d565b80601f01602080910402602001604051908101604052809291908181526020018280546102019061082d565b801561024e5780601f106102235761010080835404028352916020019161024e565b820191906000526020600020905b81548152906001019060200180831161023157829003601f168201915b5050505050905090565b600061026533848461040e565b50600192915050565b600061027b848484610532565b6001600160a01b0384166000908152600160209081526040808320338452909152902054828110156103055760405162461bcd60e51b815260206004820152602860248201527f45524332303a207472616e7366657220616d6f756e74206578636565647320616044820152676c6c6f77616e636560c01b60648201526084015b60405180910390fd5b610312853385840361040e565b506001949350505050565b3360008181526001602090815260408083206001600160a01b03871684529091528120549091610265918590610354908690610868565b61040e565b6060600480546101d59061082d565b3360009081526001602090815260408083206001600160a01b0386168452909152812054828110156103ea5760405162461bcd60e51b815260206004820152602560248201527f45524332303a2064656372656173656420616c6c6f77616e63652062656c6f77604482015264207a65726f60d81b60648201526084016102fc565b6103f7338585840361040e565b5060019392505050565b6000610265338484610532565b6001600160a01b0383166104705760405162461bcd60e51b8152602060048201526024808201527f45524332303a20617070726f76652066726f6d20746865207a65726f206164646044820152637265737360e01b60648201526084016102fc565b6001600160a01b0382166104d15760405162461bcd60e51b815260206004820152602260248201527f45524332303a20617070726f766520746f20746865207a65726f206164647265604482015261737360f01b60648201526084016102fc565b6001600160a01b0383811660008181526001602090815260408083209487168084529482529182902085905590518481527f8c5be1e5ebec7d5bd14f71427d1e84f3dd0314c0f7b2291e5b200ac8c7c3b925910160405180910390a3505050565b6001600160a01b0383166105965760405162461bcd60e51b815260206004820152602560248201527f45524332303a207472616e736665722066726f6d20746865207a65726f206164604482015264647265737360d81b60648201526084016102fc565b6001600160a01b0382166105f85760405162461bcd60e51b815260206004820152602360248201527f45524332303a207472616e7366657220746f20746865207a65726f206164647260448201526265737360e81b60648201526084016102fc565b6001600160a01b038316600090815260208190526040902054818110156106705760405162461bcd60e51b815260206004820152602660248201527f45524332303a207472616e7366657220616d6f756e7420657863656564732062604482015265616c616e636560d01b60648201526084016102fc565b6001600160a01b038085166000908152602081905260408082208585039055918516815290812080548492906106a7908490610868565b92505081905550826001600160a01b0316846001600160a01b03167fddf252ad1be2c89b69c2b068fc378daa952ba7f163c4a11628f55a4df523b3ef846040516106f391815260200190565b60405180910390a350505050565b600060208083528351808285015260005b8181101561072e57858101830151858201604001528201610712565b81811115610740576000604083870101525b50601f01601f1916929092016040019392505050565b80356001600160a01b038116811461076d57600080fd5b919050565b6000806040838503121561078557600080fd5b61078e83610756565b946020939093013593505050565b6000806000606084860312156107b157600080fd5b6107ba84610756565b92506107c860208501610756565b9150604084013590509250925092565b6000602082840312156107ea57600080fd5b6107f382610756565b9392505050565b6000806040838503121561080d57600080fd5b61081683610756565b915061082460208401610756565b90509250929050565b600181811c9082168061084157607f821691505b6020821081141561086257634e487b7160e01b600052602260045260246000fd5b50919050565b6000821982111561088957634e487b7160e01b600052601160045260246000fd5b50019056fea26469706673582212205e08477d3fee2b744df8f054c0ded4719dfa8a62f060789949a5bdfad407d0d264736f6c634300080c0033",
    "sourcePath": "c:/Users/yanni/Documents/Formation Alyra/Solidity/Solidity/src/07_Crowdsale.sol",
    "compiler": {
        "name": "solc",
        "version": "0.8.12+commit.f00d7308"
    },
    "functionHashes": {
        "rate()": "2c4e722e",
        "token()": "fc0c546a"
    },
    "gasEstimates": {
        "creation": {
            "codeDepositCost": "108600",
            "executionCost": "infinite",
            "totalCost": "infinite"
        },
        "external": {
            "rate()": "2262",
            "token()": "2337"
        },
        "internal": {
            "distribute(uint256)": "infinite"
        }
    }
}