{
    "contractName": "GameItem",
    "abi": [
        {
            "inputs": [],
            "stateMutability": "nonpayable",
            "type": "constructor"
        },
        {
            "anonymous": false,
            "inputs": [
                {
                    "indexed": true,
                    "internalType": "address",
                    "name": "owner",
                    "type": "address"
                },
                {
                    "indexed": true,
                    "internalType": "address",
                    "name": "approved",
                    "type": "address"
                },
                {
                    "indexed": true,
                    "internalType": "uint256",
                    "name": "tokenId",
                    "type": "uint256"
                }
            ],
            "name": "Approval",
            "type": "event"
        },
        {
            "anonymous": false,
            "inputs": [
                {
                    "indexed": true,
                    "internalType": "address",
                    "name": "owner",
                    "type": "address"
                },
                {
                    "indexed": true,
                    "internalType": "address",
                    "name": "operator",
                    "type": "address"
                },
                {
                    "indexed": false,
                    "internalType": "bool",
                    "name": "approved",
                    "type": "bool"
                }
            ],
            "name": "ApprovalForAll",
            "type": "event"
        },
        {
            "anonymous": false,
            "inputs": [
                {
                    "indexed": true,
                    "internalType": "address",
                    "name": "from",
                    "type": "address"
                },
                {
                    "indexed": true,
                    "internalType": "address",
                    "name": "to",
                    "type": "address"
                },
                {
                    "indexed": true,
                    "internalType": "uint256",
                    "name": "tokenId",
                    "type": "uint256"
                }
            ],
            "name": "Transfer",
            "type": "event"
        },
        {
            "inputs": [
                {
                    "internalType": "address",
                    "name": "player",
                    "type": "address"
                },
                {
                    "internalType": "string",
                    "name": "tokenURI",
                    "type": "string"
                }
            ],
            "name": "addItem",
            "outputs": [
                {
                    "internalType": "uint256",
                    "name": "",
                    "type": "uint256"
                }
            ],
            "stateMutability": "nonpayable",
            "type": "function"
        },
        {
            "inputs": [
                {
                    "internalType": "address",
                    "name": "to",
                    "type": "address"
                },
                {
                    "internalType": "uint256",
                    "name": "tokenId",
                    "type": "uint256"
                }
            ],
            "name": "approve",
            "outputs": [],
            "stateMutability": "nonpayable",
            "type": "function"
        },
        {
            "inputs": [
                {
                    "internalType": "address",
                    "name": "owner",
                    "type": "address"
                }
            ],
            "name": "balanceOf",
            "outputs": [
                {
                    "internalType": "uint256",
                    "name": "",
                    "type": "uint256"
                }
            ],
            "stateMutability": "view",
            "type": "function"
        },
        {
            "inputs": [
                {
                    "internalType": "uint256",
                    "name": "tokenId",
                    "type": "uint256"
                }
            ],
            "name": "getApproved",
            "outputs": [
                {
                    "internalType": "address",
                    "name": "",
                    "type": "address"
                }
            ],
            "stateMutability": "view",
            "type": "function"
        },
        {
            "inputs": [
                {
                    "internalType": "address",
                    "name": "owner",
                    "type": "address"
                },
                {
                    "internalType": "address",
                    "name": "operator",
                    "type": "address"
                }
            ],
            "name": "isApprovedForAll",
            "outputs": [
                {
                    "internalType": "bool",
                    "name": "",
                    "type": "bool"
                }
            ],
            "stateMutability": "view",
            "type": "function"
        },
        {
            "inputs": [],
            "name": "name",
            "outputs": [
                {
                    "internalType": "string",
                    "name": "",
                    "type": "string"
                }
            ],
            "stateMutability": "view",
            "type": "function"
        },
        {
            "inputs": [
                {
                    "internalType": "uint256",
                    "name": "tokenId",
                    "type": "uint256"
                }
            ],
            "name": "ownerOf",
            "outputs": [
                {
                    "internalType": "address",
                    "name": "",
                    "type": "address"
                }
            ],
            "stateMutability": "view",
            "type": "function"
        },
        {
            "inputs": [
                {
                    "internalType": "address",
                    "name": "from",
                    "type": "address"
                },
                {
                    "internalType": "address",
                    "name": "to",
                    "type": "address"
                },
                {
                    "internalType": "uint256",
                    "name": "tokenId",
                    "type": "uint256"
                }
            ],
            "name": "safeTransferFrom",
            "outputs": [],
            "stateMutability": "nonpayable",
            "type": "function"
        },
        {
            "inputs": [
                {
                    "internalType": "address",
                    "name": "from",
                    "type": "address"
                },
                {
                    "internalType": "address",
                    "name": "to",
                    "type": "address"
                },
                {
                    "internalType": "uint256",
                    "name": "tokenId",
                    "type": "uint256"
                },
                {
                    "internalType": "bytes",
                    "name": "_data",
                    "type": "bytes"
                }
            ],
            "name": "safeTransferFrom",
            "outputs": [],
            "stateMutability": "nonpayable",
            "type": "function"
        },
        {
            "inputs": [
                {
                    "internalType": "address",
                    "name": "operator",
                    "type": "address"
                },
                {
                    "internalType": "bool",
                    "name": "approved",
                    "type": "bool"
                }
            ],
            "name": "setApprovalForAll",
            "outputs": [],
            "stateMutability": "nonpayable",
            "type": "function"
        },
        {
            "inputs": [
                {
                    "internalType": "bytes4",
                    "name": "interfaceId",
                    "type": "bytes4"
                }
            ],
            "name": "supportsInterface",
            "outputs": [
                {
                    "internalType": "bool",
                    "name": "",
                    "type": "bool"
                }
            ],
            "stateMutability": "view",
            "type": "function"
        },
        {
            "inputs": [],
            "name": "symbol",
            "outputs": [
                {
                    "internalType": "string",
                    "name": "",
                    "type": "string"
                }
            ],
            "stateMutability": "view",
            "type": "function"
        },
        {
            "inputs": [
                {
                    "internalType": "uint256",
                    "name": "tokenId",
                    "type": "uint256"
                }
            ],
            "name": "tokenURI",
            "outputs": [
                {
                    "internalType": "string",
                    "name": "",
                    "type": "string"
                }
            ],
            "stateMutability": "view",
            "type": "function"
        },
        {
            "inputs": [
                {
                    "internalType": "address",
                    "name": "from",
                    "type": "address"
                },
                {
                    "internalType": "address",
                    "name": "to",
                    "type": "address"
                },
                {
                    "internalType": "uint256",
                    "name": "tokenId",
                    "type": "uint256"
                }
            ],
            "name": "transferFrom",
            "outputs": [],
            "stateMutability": "nonpayable",
            "type": "function"
        }
    ],
    "bytecode": "60806040523480156200001157600080fd5b50604080518082018252600881526747616d654974656d60c01b60208083019182528351808501909452600384526249544d60e81b9084015281519192916200005d916000916200007c565b508051620000739060019060208401906200007c565b5050506200015f565b8280546200008a9062000122565b90600052602060002090601f016020900481019282620000ae5760008555620000f9565b82601f10620000c957805160ff1916838001178555620000f9565b82800160010185558215620000f9579182015b82811115620000f9578251825591602001919060010190620000dc565b50620001079291506200010b565b5090565b5b808211156200010757600081556001016200010c565b600181811c908216806200013757607f821691505b602082108114156200015957634e487b7160e01b600052602260045260246000fd5b50919050565b6116ea806200016f6000396000f3fe608060405234801561001057600080fd5b50600436106100ea5760003560e01c80636352211e1161008c578063a22cb46511610066578063a22cb465146101e1578063b88d4fde146101f4578063c87b56dd14610207578063e985e9c51461021a57600080fd5b80636352211e146101b357806370a08231146101c657806395d89b41146101d957600080fd5b8063095ea7b3116100c8578063095ea7b31461015757806323b872dd1461016c57806336e0271d1461017f57806342842e0e146101a057600080fd5b806301ffc9a7146100ef57806306fdde0314610117578063081812fc1461012c575b600080fd5b6101026100fd366004611182565b610256565b60405190151581526020015b60405180910390f35b61011f6102a8565b60405161010e91906111f7565b61013f61013a36600461120a565b61033a565b6040516001600160a01b03909116815260200161010e565b61016a61016536600461123f565b6103c7565b005b61016a61017a366004611269565b6104dd565b61019261018d366004611331565b61050e565b60405190815260200161010e565b61016a6101ae366004611269565b610546565b61013f6101c136600461120a565b610561565b6101926101d4366004611393565b6105d8565b61011f61065f565b61016a6101ef3660046113ae565b61066e565b61016a6102023660046113ea565b61067d565b61011f61021536600461120a565b6106b5565b610102610228366004611466565b6001600160a01b03918216600090815260056020908152604080832093909416825291909152205460ff1690565b60006001600160e01b031982166380ac58cd60e01b148061028757506001600160e01b03198216635b5e139f60e01b145b806102a257506301ffc9a760e01b6001600160e01b03198316145b92915050565b6060600080546102b790611499565b80601f01602080910402602001604051908101604052809291908181526020018280546102e390611499565b80156103305780601f1061030557610100808354040283529160200191610330565b820191906000526020600020905b81548152906001019060200180831161031357829003601f168201915b5050505050905090565b60006103458261082c565b6103ab5760405162461bcd60e51b815260206004820152602c60248201527f4552433732313a20617070726f76656420717565727920666f72206e6f6e657860448201526b34b9ba32b73a103a37b5b2b760a11b60648201526084015b60405180910390fd5b506000908152600460205260409020546001600160a01b031690565b60006103d282610561565b9050806001600160a01b0316836001600160a01b031614156104405760405162461bcd60e51b815260206004820152602160248201527f4552433732313a20617070726f76616c20746f2063757272656e74206f776e656044820152603960f91b60648201526084016103a2565b336001600160a01b038216148061045c575061045c8133610228565b6104ce5760405162461bcd60e51b815260206004820152603860248201527f4552433732313a20617070726f76652063616c6c6572206973206e6f74206f7760448201527f6e6572206e6f7220617070726f76656420666f7220616c6c000000000000000060648201526084016103a2565b6104d88383610849565b505050565b6104e733826108b7565b6105035760405162461bcd60e51b81526004016103a2906114d4565b6104d883838361099d565b600061051e600780546001019055565b600061052960075490565b90506105358482610b3d565b61053f8184610c70565b9392505050565b6104d88383836040518060200160405280600081525061067d565b6000818152600260205260408120546001600160a01b0316806102a25760405162461bcd60e51b815260206004820152602960248201527f4552433732313a206f776e657220717565727920666f72206e6f6e657869737460448201526832b73a103a37b5b2b760b91b60648201526084016103a2565b60006001600160a01b0382166106435760405162461bcd60e51b815260206004820152602a60248201527f4552433732313a2062616c616e636520717565727920666f7220746865207a65604482015269726f206164647265737360b01b60648201526084016103a2565b506001600160a01b031660009081526003602052604090205490565b6060600180546102b790611499565b610679338383610cfb565b5050565b61068733836108b7565b6106a35760405162461bcd60e51b81526004016103a2906114d4565b6106af84848484610dca565b50505050565b60606106c08261082c565b6107265760405162461bcd60e51b815260206004820152603160248201527f45524337323155524953746f726167653a2055524920717565727920666f72206044820152703737b732bc34b9ba32b73a103a37b5b2b760791b60648201526084016103a2565b6000828152600660205260408120805461073f90611499565b80601f016020809104026020016040519081016040528092919081815260200182805461076b90611499565b80156107b85780601f1061078d576101008083540402835291602001916107b8565b820191906000526020600020905b81548152906001019060200180831161079b57829003601f168201915b5050505050905060006107d660408051602081019091526000815290565b90508051600014156107e9575092915050565b81511561081b578082604051602001610803929190611525565b60405160208183030381529060405292505050919050565b61082484610dfd565b949350505050565b6000908152600260205260409020546001600160a01b0316151590565b600081815260046020526040902080546001600160a01b0319166001600160a01b038416908117909155819061087e82610561565b6001600160a01b03167f8c5be1e5ebec7d5bd14f71427d1e84f3dd0314c0f7b2291e5b200ac8c7c3b92560405160405180910390a45050565b60006108c28261082c565b6109235760405162461bcd60e51b815260206004820152602c60248201527f4552433732313a206f70657261746f7220717565727920666f72206e6f6e657860448201526b34b9ba32b73a103a37b5b2b760a11b60648201526084016103a2565b600061092e83610561565b9050806001600160a01b0316846001600160a01b031614806109695750836001600160a01b031661095e8461033a565b6001600160a01b0316145b8061082457506001600160a01b0380821660009081526005602090815260408083209388168352929052205460ff16610824565b826001600160a01b03166109b082610561565b6001600160a01b031614610a185760405162461bcd60e51b815260206004820152602960248201527f4552433732313a207472616e73666572206f6620746f6b656e2074686174206960448201526839903737ba1037bbb760b91b60648201526084016103a2565b6001600160a01b038216610a7a5760405162461bcd60e51b8152602060048201526024808201527f4552433732313a207472616e7366657220746f20746865207a65726f206164646044820152637265737360e01b60648201526084016103a2565b610a85600082610849565b6001600160a01b0383166000908152600360205260408120805460019290610aae90849061156a565b90915550506001600160a01b0382166000908152600360205260408120805460019290610adc908490611581565b909155505060008181526002602052604080822080546001600160a01b0319166001600160a01b0386811691821790925591518493918716917fddf252ad1be2c89b69c2b068fc378daa952ba7f163c4a11628f55a4df523b3ef91a4505050565b6001600160a01b038216610b935760405162461bcd60e51b815260206004820181905260248201527f4552433732313a206d696e7420746f20746865207a65726f206164647265737360448201526064016103a2565b610b9c8161082c565b15610be95760405162461bcd60e51b815260206004820152601c60248201527f4552433732313a20746f6b656e20616c7265616479206d696e7465640000000060448201526064016103a2565b6001600160a01b0382166000908152600360205260408120805460019290610c12908490611581565b909155505060008181526002602052604080822080546001600160a01b0319166001600160a01b03861690811790915590518392907fddf252ad1be2c89b69c2b068fc378daa952ba7f163c4a11628f55a4df523b3ef908290a45050565b610c798261082c565b610cdc5760405162461bcd60e51b815260206004820152602e60248201527f45524337323155524953746f726167653a2055524920736574206f66206e6f6e60448201526d32bc34b9ba32b73a103a37b5b2b760911b60648201526084016103a2565b600082815260066020908152604090912082516104d8928401906110d0565b816001600160a01b0316836001600160a01b03161415610d5d5760405162461bcd60e51b815260206004820152601960248201527f4552433732313a20617070726f766520746f2063616c6c65720000000000000060448201526064016103a2565b6001600160a01b03838116600081815260056020908152604080832094871680845294825291829020805460ff191686151590811790915591519182527f17307eab39ab6107e8899845ad3d59bd9653f200f220920489ca2b5937696c31910160405180910390a3505050565b610dd584848461099d565b610de184848484610ed4565b6106af5760405162461bcd60e51b81526004016103a290611599565b6060610e088261082c565b610e6c5760405162461bcd60e51b815260206004820152602f60248201527f4552433732314d657461646174613a2055524920717565727920666f72206e6f60448201526e3732bc34b9ba32b73a103a37b5b2b760891b60648201526084016103a2565b6000610e8360408051602081019091526000815290565b90506000815111610ea3576040518060200160405280600081525061053f565b80610ead84610fd2565b604051602001610ebe929190611525565b6040516020818303038152906040529392505050565b60006001600160a01b0384163b15610fc757604051630a85bd0160e11b81526001600160a01b0385169063150b7a0290610f189033908990889088906004016115eb565b6020604051808303816000875af1925050508015610f53575060408051601f3d908101601f19168201909252610f5091810190611628565b60015b610fad573d808015610f81576040519150601f19603f3d011682016040523d82523d6000602084013e610f86565b606091505b508051610fa55760405162461bcd60e51b81526004016103a290611599565b805181602001fd5b6001600160e01b031916630a85bd0160e11b149050610824565b506001949350505050565b606081610ff65750506040805180820190915260018152600360fc1b602082015290565b8160005b8115611020578061100a81611645565b91506110199050600a83611676565b9150610ffa565b60008167ffffffffffffffff81111561103b5761103b6112a5565b6040519080825280601f01601f191660200182016040528015611065576020820181803683370190505b5090505b84156108245761107a60018361156a565b9150611087600a8661168a565b611092906030611581565b60f81b8183815181106110a7576110a761169e565b60200101906001600160f81b031916908160001a9053506110c9600a86611676565b9450611069565b8280546110dc90611499565b90600052602060002090601f0160209004810192826110fe5760008555611144565b82601f1061111757805160ff1916838001178555611144565b82800160010185558215611144579182015b82811115611144578251825591602001919060010190611129565b50611150929150611154565b5090565b5b808211156111505760008155600101611155565b6001600160e01b03198116811461117f57600080fd5b50565b60006020828403121561119457600080fd5b813561053f81611169565b60005b838110156111ba5781810151838201526020016111a2565b838111156106af5750506000910152565b600081518084526111e381602086016020860161119f565b601f01601f19169290920160200192915050565b60208152600061053f60208301846111cb565b60006020828403121561121c57600080fd5b5035919050565b80356001600160a01b038116811461123a57600080fd5b919050565b6000806040838503121561125257600080fd5b61125b83611223565b946020939093013593505050565b60008060006060848603121561127e57600080fd5b61128784611223565b925061129560208501611223565b9150604084013590509250925092565b634e487b7160e01b600052604160045260246000fd5b600067ffffffffffffffff808411156112d6576112d66112a5565b604051601f8501601f19908116603f011681019082821181831017156112fe576112fe6112a5565b8160405280935085815286868601111561131757600080fd5b858560208301376000602087830101525050509392505050565b6000806040838503121561134457600080fd5b61134d83611223565b9150602083013567ffffffffffffffff81111561136957600080fd5b8301601f8101851361137a57600080fd5b611389858235602084016112bb565b9150509250929050565b6000602082840312156113a557600080fd5b61053f82611223565b600080604083850312156113c157600080fd5b6113ca83611223565b9150602083013580151581146113df57600080fd5b809150509250929050565b6000806000806080858703121561140057600080fd5b61140985611223565b935061141760208601611223565b925060408501359150606085013567ffffffffffffffff81111561143a57600080fd5b8501601f8101871361144b57600080fd5b61145a878235602084016112bb565b91505092959194509250565b6000806040838503121561147957600080fd5b61148283611223565b915061149060208401611223565b90509250929050565b600181811c908216806114ad57607f821691505b602082108114156114ce57634e487b7160e01b600052602260045260246000fd5b50919050565b60208082526031908201527f4552433732313a207472616e736665722063616c6c6572206973206e6f74206f6040820152701ddb995c881b9bdc88185c1c1c9bdd9959607a1b606082015260800190565b6000835161153781846020880161119f565b83519083019061154b81836020880161119f565b01949350505050565b634e487b7160e01b600052601160045260246000fd5b60008282101561157c5761157c611554565b500390565b6000821982111561159457611594611554565b500190565b60208082526032908201527f4552433732313a207472616e7366657220746f206e6f6e20455243373231526560408201527131b2b4bb32b91034b6b83632b6b2b73a32b960711b606082015260800190565b6001600160a01b038581168252841660208201526040810183905260806060820181905260009061161e908301846111cb565b9695505050505050565b60006020828403121561163a57600080fd5b815161053f81611169565b600060001982141561165957611659611554565b5060010190565b634e487b7160e01b600052601260045260246000fd5b60008261168557611685611660565b500490565b60008261169957611699611660565b500690565b634e487b7160e01b600052603260045260246000fdfea264697066735822122055a359c4ee554cd6953c2f7f34a897a68e89012833ca9c9b8187263f5969adbf64736f6c634300080b0033",
    "sourcePath": "c:/Users/yanni/OneDrive/Documents/Formationblockchain/Chapitre 3 - Solidity/Contracts/src/GameItem.sol",
    "compiler": {
        "name": "solc",
        "version": "0.8.11+commit.d7f03943"
    },
    "functionHashes": {
        "addItem(address,string)": "36e0271d",
        "approve(address,uint256)": "095ea7b3",
        "balanceOf(address)": "70a08231",
        "getApproved(uint256)": "081812fc",
        "isApprovedForAll(address,address)": "e985e9c5",
        "name()": "06fdde03",
        "ownerOf(uint256)": "6352211e",
        "safeTransferFrom(address,address,uint256)": "42842e0e",
        "safeTransferFrom(address,address,uint256,bytes)": "b88d4fde",
        "setApprovalForAll(address,bool)": "a22cb465",
        "supportsInterface(bytes4)": "01ffc9a7",
        "symbol()": "95d89b41",
        "tokenURI(uint256)": "c87b56dd",
        "transferFrom(address,address,uint256)": "23b872dd"
    },
    "gasEstimates": {
        "creation": {
            "codeDepositCost": "1173200",
            "executionCost": "infinite",
            "totalCost": "infinite"
        },
        "external": {
            "addItem(address,string)": "infinite",
            "approve(address,uint256)": "infinite",
            "balanceOf(address)": "2634",
            "getApproved(uint256)": "4799",
            "isApprovedForAll(address,address)": "infinite",
            "name()": "infinite",
            "ownerOf(uint256)": "2579",
            "safeTransferFrom(address,address,uint256)": "infinite",
            "safeTransferFrom(address,address,uint256,bytes)": "infinite",
            "setApprovalForAll(address,bool)": "26708",
            "supportsInterface(bytes4)": "534",
            "symbol()": "infinite",
            "tokenURI(uint256)": "infinite",
            "transferFrom(address,address,uint256)": "infinite"
        }
    }
}