{
    "contractName": "Random",
    "abi": [
        {
            "inputs": [],
            "name": "random",
            "outputs": [
                {
                    "internalType": "uint256",
                    "name": "",
                    "type": "uint256"
                }
            ],
            "stateMutability": "nonpayable",
            "type": "function"
        }
    ],
    "bytecode": "60806040526000805534801561001457600080fd5b50610121806100246000396000f3fe6080604052348015600f57600080fd5b506004361060285760003560e01c80635ec01e4d14602d575b600080fd5b60336045565b60405190815260200160405180910390f35b600060016000808282546057919060a5565b909155505060005460408051426020820152339181019190915260608101919091526064906080016040516020818303038152906040528051906020012060001c60a0919060ca565b905090565b6000821982111560c557634e487b7160e01b600052601160045260246000fd5b500190565b60008260e657634e487b7160e01b600052601260045260246000fd5b50069056fea26469706673582212201bd12a200bbbaeb68d26a84cebcd0daeeecaa2c1b42e805345a2bc5854f13c9864736f6c634300080c0033",
    "sourcePath": "c:/Users/yanni/Documents/Formation Alyra/Solidity/Solidity/src/10_Random.sol",
    "compiler": {
        "name": "solc",
        "version": "0.8.12+commit.f00d7308"
    },
    "functionHashes": {
        "random()": "5ec01e4d"
    },
    "gasEstimates": {
        "creation": {
            "codeDepositCost": "57800",
            "executionCost": "5117",
            "totalCost": "62917"
        },
        "external": {
            "random()": "26832"
        }
    }
}