{
    "contractName": "Time",
    "abi": [
        {
            "inputs": [],
            "name": "getTime",
            "outputs": [
                {
                    "internalType": "uint256",
                    "name": "",
                    "type": "uint256"
                }
            ],
            "stateMutability": "view",
            "type": "function"
        }
    ],
    "bytecode": "6080604052348015600f57600080fd5b50607680601d6000396000f3fe6080604052348015600f57600080fd5b506004361060285760003560e01c8063557ed1ba14602d575b600080fd5b4260405190815260200160405180910390f3fea2646970667358221220be666755958b845173faac4cb186c4b35c58f19058b3ca573f8404d8ca4edfde64736f6c634300080c0033",
    "sourcePath": "c:/Users/yanni/Documents/Formation Alyra/Solidity/Solidity/src/04_Time.sol",
    "compiler": {
        "name": "solc",
        "version": "0.8.12+commit.f00d7308"
    },
    "functionHashes": {
        "getTime()": "557ed1ba"
    },
    "gasEstimates": {
        "creation": {
            "codeDepositCost": "23600",
            "executionCost": "75",
            "totalCost": "23675"
        },
        "external": {
            "getTime()": "145"
        }
    }
}