{
    "contractName": "Voting",
    "abi": [
        {
            "anonymous": false,
            "inputs": [
                {
                    "indexed": true,
                    "internalType": "address",
                    "name": "previousOwner",
                    "type": "address"
                },
                {
                    "indexed": true,
                    "internalType": "address",
                    "name": "newOwner",
                    "type": "address"
                }
            ],
            "name": "OwnershipTransferred",
            "type": "event"
        },
        {
            "anonymous": false,
            "inputs": [
                {
                    "indexed": false,
                    "internalType": "uint256",
                    "name": "proposalId",
                    "type": "uint256"
                }
            ],
            "name": "ProposalRegistered",
            "type": "event"
        },
        {
            "anonymous": false,
            "inputs": [
                {
                    "indexed": false,
                    "internalType": "address",
                    "name": "voter",
                    "type": "address"
                },
                {
                    "indexed": false,
                    "internalType": "uint256",
                    "name": "proposalId",
                    "type": "uint256"
                }
            ],
            "name": "Voted",
            "type": "event"
        },
        {
            "anonymous": false,
            "inputs": [
                {
                    "indexed": false,
                    "internalType": "address",
                    "name": "voterAddress",
                    "type": "address"
                }
            ],
            "name": "VoterBlackListed",
            "type": "event"
        },
        {
            "anonymous": false,
            "inputs": [
                {
                    "indexed": false,
                    "internalType": "address",
                    "name": "voterAddress",
                    "type": "address"
                }
            ],
            "name": "VoterRegistered",
            "type": "event"
        },
        {
            "anonymous": false,
            "inputs": [
                {
                    "indexed": false,
                    "internalType": "enum Voting.WorkflowStatus",
                    "name": "previousStatus",
                    "type": "uint8"
                },
                {
                    "indexed": false,
                    "internalType": "enum Voting.WorkflowStatus",
                    "name": "newStatus",
                    "type": "uint8"
                }
            ],
            "name": "WorkflowStatusChange",
            "type": "event"
        },
        {
            "inputs": [],
            "name": "EndProposalsRegistration",
            "outputs": [
                {
                    "internalType": "enum Voting.WorkflowStatus",
                    "name": "",
                    "type": "uint8"
                }
            ],
            "stateMutability": "nonpayable",
            "type": "function"
        },
        {
            "inputs": [],
            "name": "EndVoting",
            "outputs": [
                {
                    "internalType": "enum Voting.WorkflowStatus",
                    "name": "",
                    "type": "uint8"
                }
            ],
            "stateMutability": "nonpayable",
            "type": "function"
        },
        {
            "inputs": [],
            "name": "StartProposalsRegistration",
            "outputs": [
                {
                    "internalType": "enum Voting.WorkflowStatus",
                    "name": "",
                    "type": "uint8"
                }
            ],
            "stateMutability": "nonpayable",
            "type": "function"
        },
        {
            "inputs": [],
            "name": "StartVoting",
            "outputs": [
                {
                    "internalType": "enum Voting.WorkflowStatus",
                    "name": "",
                    "type": "uint8"
                }
            ],
            "stateMutability": "nonpayable",
            "type": "function"
        },
        {
            "inputs": [
                {
                    "internalType": "uint256",
                    "name": "_proposalID",
                    "type": "uint256"
                }
            ],
            "name": "Vote",
            "outputs": [],
            "stateMutability": "nonpayable",
            "type": "function"
        },
        {
            "inputs": [
                {
                    "internalType": "address",
                    "name": "_voterAddress",
                    "type": "address"
                }
            ],
            "name": "addVoter",
            "outputs": [],
            "stateMutability": "nonpayable",
            "type": "function"
        },
        {
            "inputs": [],
            "name": "countVotes",
            "outputs": [
                {
                    "internalType": "enum Voting.WorkflowStatus",
                    "name": "",
                    "type": "uint8"
                }
            ],
            "stateMutability": "nonpayable",
            "type": "function"
        },
        {
            "inputs": [],
            "name": "currentStatus",
            "outputs": [
                {
                    "internalType": "enum Voting.WorkflowStatus",
                    "name": "",
                    "type": "uint8"
                }
            ],
            "stateMutability": "view",
            "type": "function"
        },
        {
            "inputs": [],
            "name": "owner",
            "outputs": [
                {
                    "internalType": "address",
                    "name": "",
                    "type": "address"
                }
            ],
            "stateMutability": "view",
            "type": "function"
        },
        {
            "inputs": [
                {
                    "internalType": "uint256",
                    "name": "",
                    "type": "uint256"
                }
            ],
            "name": "proposalList",
            "outputs": [
                {
                    "internalType": "string",
                    "name": "description",
                    "type": "string"
                },
                {
                    "internalType": "uint256",
                    "name": "voteCount",
                    "type": "uint256"
                }
            ],
            "stateMutability": "view",
            "type": "function"
        },
        {
            "inputs": [
                {
                    "internalType": "string",
                    "name": "_proposal",
                    "type": "string"
                }
            ],
            "name": "registerProposal",
            "outputs": [],
            "stateMutability": "nonpayable",
            "type": "function"
        },
        {
            "inputs": [],
            "name": "renounceOwnership",
            "outputs": [],
            "stateMutability": "nonpayable",
            "type": "function"
        },
        {
            "inputs": [
                {
                    "internalType": "address",
                    "name": "newOwner",
                    "type": "address"
                }
            ],
            "name": "transferOwnership",
            "outputs": [],
            "stateMutability": "nonpayable",
            "type": "function"
        },
        {
            "inputs": [
                {
                    "internalType": "address",
                    "name": "",
                    "type": "address"
                }
            ],
            "name": "whitelist",
            "outputs": [
                {
                    "internalType": "bool",
                    "name": "isRegistered",
                    "type": "bool"
                },
                {
                    "internalType": "bool",
                    "name": "hasVoted",
                    "type": "bool"
                },
                {
                    "internalType": "uint256",
                    "name": "votedProposalId",
                    "type": "uint256"
                }
            ],
            "stateMutability": "view",
            "type": "function"
        },
        {
            "inputs": [],
            "name": "winningProposalId",
            "outputs": [
                {
                    "internalType": "uint256",
                    "name": "",
                    "type": "uint256"
                }
            ],
            "stateMutability": "view",
            "type": "function"
        }
    ],
    "bytecode": "60806040526005805460ff1916905534801561001a57600080fd5b5061002433610029565b610079565b600080546001600160a01b038381166001600160a01b0319831681178455604051919092169283917f8be0079c531659141344cd1fd0a4f28419497f9722a3daafe3b4186f6b6457e09190a35050565b611076806100886000396000f3fe608060405234801561001057600080fd5b50600436106100f55760003560e01c80639b19251a11610097578063dcd6a5cd11610066578063dcd6a5cd146101f9578063ef8a92351461020c578063f2fde38b14610219578063f4ab9adf1461022c57600080fd5b80639b19251a14610168578063b647990a146101b9578063c6311e3f146101c1578063c64963c5146101e257600080fd5b8063715018a6116100d3578063715018a6146101355780637a99c0a61461013d5780637b3d7042146101455780638da5cb5b1461014d57600080fd5b806325e07db2146100fa5780632f95355b14610118578063308055511461012d575b600080fd5b61010261023f565b60405161010f9190610c21565b60405180910390f35b61012b610126366004610c4b565b61030c565b005b610102610418565b61012b610491565b6101026104c7565b610102610540565b6000546040516001600160a01b03909116815260200161010f565b61019c610176366004610cfc565b6003602052600090815260409020805460019091015460ff808316926101009004169083565b60408051931515845291151560208401529082015260600161010f565b6101026105f4565b6101d46101cf366004610d2c565b61069d565b60405161010f929190610d45565b6101eb60025481565b60405190815260200161010f565b61012b610207366004610d2c565b610741565b6005546101029060ff1681565b61012b610227366004610cfc565b61097d565b61012b61023a366004610cfc565b610a18565b600080546001600160a01b031633146102735760405162461bcd60e51b815260040161026a90610d9a565b60405180910390fd5b60016005805460ff169081111561028c5761028c610be9565b146102a95760405162461bcd60e51b815260040161026a90610dcf565b6005805460ff81169160029160ff19166001835b02179055506005546040517f0a97a4ee45751e2abf3e4fc8946939630b11b371ea8ae39ccdc3056e98f5cc3f916102f991849160ff1690610e17565b60405180910390a1505060055460ff1690565b60016005805460ff169081111561032557610325610be9565b146103425760405162461bcd60e51b815260040161026a90610dcf565b3360009081526003602052604090205460ff166103a15760405162461bcd60e51b815260206004820152601f60248201527f596f75277265206e6f7420696e207468652077686974656c6973742021212100604482015260640161026a565b6103af600180546001019055565b80600460006103bd60015490565b81526020810191909152604001600020906103d89082610ebb565b507f92e393e9b54e2f801d3ea4beb0c5e71a21cc34a5d34b77d0fb8a3aa1650dc18f61040360015490565b6040519081526020015b60405180910390a150565b600080546001600160a01b031633146104435760405162461bcd60e51b815260040161026a90610d9a565b60036005805460ff169081111561045c5761045c610be9565b146104795760405162461bcd60e51b815260040161026a90610f7b565b6005805460ff81169160049160ff19166001836102bd565b6000546001600160a01b031633146104bb5760405162461bcd60e51b815260040161026a90610d9a565b6104c56000610b99565b565b600080546001600160a01b031633146104f25760405162461bcd60e51b815260040161026a90610d9a565b60026005805460ff169081111561050b5761050b610be9565b146105285760405162461bcd60e51b815260040161026a90610f7b565b6005805460ff81169160039160ff19166001836102bd565b600080546001600160a01b0316331461056b5760405162461bcd60e51b815260040161026a90610d9a565b60006005805460ff169081111561058457610584610be9565b146105dd5760405162461bcd60e51b815260206004820152602360248201527f5468652070726f706f73616c20726567697374726174696f6e206973206f766560448201526272202160e81b606482015260840161026a565b6005805460ff81169160019160ff191682806102bd565b600080546001600160a01b0316331461061f5760405162461bcd60e51b815260040161026a90610d9a565b60046005805460ff169081111561063857610638610be9565b146106855760405162461bcd60e51b815260206004820152601f60248201527f54686520636f756e74696e67206f6620766f746573206973206f766572202100604482015260640161026a565b6005805460ff81169190819060ff19166001826102bd565b6004602052600090815260409020805481906106b890610e32565b80601f01602080910402602001604051908101604052809291908181526020018280546106e490610e32565b80156107315780601f1061070657610100808354040283529160200191610731565b820191906000526020600020905b81548152906001019060200180831161071457829003601f168201915b5050505050908060010154905082565b60036005805460ff169081111561075a5761075a610be9565b146107775760405162461bcd60e51b815260040161026a90610f7b565b3360009081526003602052604090205460ff166107d65760405162461bcd60e51b815260206004820152601d60248201527f596f75277265206e6f7420696e207468652077686974656c6973742021000000604482015260640161026a565b33600090815260036020526040902054610100900460ff16156108325760405162461bcd60e51b8152602060048201526014602482015273165bdd49dc9948185b1c9958591e481d9bdd195960621b604482015260640161026a565b60408051602080820183526000918290528382526004905281902090517fc5d2460186f7233c927e7db2dcc703c0e500b653ca82273b7bfad8045d85a4709161087a91610fa9565b6040518091039020036108cf5760405162461bcd60e51b815260206004820152601f60248201527f546869732070726f706f73616c20494420646f6573206e6f7420657869737400604482015260640161026a565b3360009081526003602090815260408083206001808201869055815461ff0019166101001790915584845260049092528220810180549192909161091490849061101f565b90915550506000818152600460205260408082206001908101546002548452919092209091015410156109475760028190555b60408051338152602081018390527f4d99b957a2bc29a30ebd96a7be8e68fe50a3c701db28a91436490b7d53870ca4910161040d565b6000546001600160a01b031633146109a75760405162461bcd60e51b815260040161026a90610d9a565b6001600160a01b038116610a0c5760405162461bcd60e51b815260206004820152602660248201527f4f776e61626c653a206e6577206f776e657220697320746865207a65726f206160448201526564647265737360d01b606482015260840161026a565b610a1581610b99565b50565b6000546001600160a01b03163314610a425760405162461bcd60e51b815260040161026a90610d9a565b60006005805460ff1690811115610a5b57610a5b610be9565b14610adc5760405162461bcd60e51b815260206004820152604560248201527f566f74657220726567697374726174696f6e2073657373696f6e206973206f7660448201527f65722c20706c65617365207761697420666f7220746865206e65787420766f74606482015264696e67202160d81b608482015260a40161026a565b6001600160a01b03811660009081526003602052604090205460ff1615610b455760405162461bcd60e51b815260206004820152601e60248201527f566f74657220697320616c7265616c6479207265676973746572656420210000604482015260640161026a565b6001600160a01b038116600081815260036020908152604091829020805460ff1916600117905590519182527fb6be2187d059cc2a55fe29e0e503b566e1e0f8c8780096e185429350acffd3dd910161040d565b600080546001600160a01b038381166001600160a01b0319831681178455604051919092169283917f8be0079c531659141344cd1fd0a4f28419497f9722a3daafe3b4186f6b6457e09190a35050565b634e487b7160e01b600052602160045260246000fd5b60068110610c1d57634e487b7160e01b600052602160045260246000fd5b9052565b60208101610c2f8284610bff565b92915050565b634e487b7160e01b600052604160045260246000fd5b600060208284031215610c5d57600080fd5b813567ffffffffffffffff80821115610c7557600080fd5b818401915084601f830112610c8957600080fd5b813581811115610c9b57610c9b610c35565b604051601f8201601f19908116603f01168101908382118183101715610cc357610cc3610c35565b81604052828152876020848701011115610cdc57600080fd5b826020860160208301376000928101602001929092525095945050505050565b600060208284031215610d0e57600080fd5b81356001600160a01b0381168114610d2557600080fd5b9392505050565b600060208284031215610d3e57600080fd5b5035919050565b604081526000835180604084015260005b81811015610d735760208187018101516060868401015201610d56565b506000606082850101526060601f19601f8301168401019150508260208301529392505050565b6020808252818101527f4f776e61626c653a2063616c6c6572206973206e6f7420746865206f776e6572604082015260600190565b60208082526028908201527f5468652070726f706f73616c20726567697374726174696f6e20766f7465206960408201526773206f766572202160c01b606082015260800190565b60408101610e258285610bff565b610d256020830184610bff565b600181811c90821680610e4657607f821691505b602082108103610e6657634e487b7160e01b600052602260045260246000fd5b50919050565b601f821115610eb657600081815260208120601f850160051c81016020861015610e935750805b601f850160051c820191505b81811015610eb257828155600101610e9f565b5050505b505050565b815167ffffffffffffffff811115610ed557610ed5610c35565b610ee981610ee38454610e32565b84610e6c565b602080601f831160018114610f1e5760008415610f065750858301515b600019600386901b1c1916600185901b178555610eb2565b600085815260208120601f198616915b82811015610f4d57888601518255948401946001909101908401610f2e565b5085821015610f6b5787850151600019600388901b60f8161c191681555b5050505050600190811b01905550565b60208082526014908201527354686520766f74696e67206973206f766572202160601b604082015260600190565b6000808354610fb781610e32565b60018281168015610fcf5760018114610fe457611013565b60ff1984168752821515830287019450611013565b8760005260208060002060005b8581101561100a5781548a820152908401908201610ff1565b50505082870194505b50929695505050505050565b80820180821115610c2f57634e487b7160e01b600052601160045260246000fdfea264697066735822122047741f95f567575c9dbce969e43c83b49ee1dea473f3462e2738d7bc89b090e564736f6c63430008100033",
    "sourcePath": "c:/Users/yanni/Documents/Formation Alyra/Solidity/Solidity/src/14_Voting.sol",
    "compiler": {
        "name": "solc",
        "version": "0.8.16+commit.07a7930e"
    },
    "functionHashes": {
        "EndProposalsRegistration()": "25e07db2",
        "EndVoting()": "30805551",
        "StartProposalsRegistration()": "7b3d7042",
        "StartVoting()": "7a99c0a6",
        "Vote(uint256)": "dcd6a5cd",
        "addVoter(address)": "f4ab9adf",
        "countVotes()": "b647990a",
        "currentStatus()": "ef8a9235",
        "owner()": "8da5cb5b",
        "proposalList(uint256)": "c6311e3f",
        "registerProposal(string)": "2f95355b",
        "renounceOwnership()": "715018a6",
        "transferOwnership(address)": "f2fde38b",
        "whitelist(address)": "9b19251a",
        "winningProposalId()": "c64963c5"
    },
    "gasEstimates": {
        "creation": {
            "codeDepositCost": "842800",
            "executionCost": "50936",
            "totalCost": "893736"
        },
        "external": {
            "EndProposalsRegistration()": "infinite",
            "EndVoting()": "infinite",
            "StartProposalsRegistration()": "infinite",
            "StartVoting()": "infinite",
            "Vote(uint256)": "infinite",
            "addVoter(address)": "32257",
            "countVotes()": "infinite",
            "currentStatus()": "2429",
            "owner()": "2390",
            "proposalList(uint256)": "infinite",
            "registerProposal(string)": "infinite",
            "renounceOwnership()": "28137",
            "transferOwnership(address)": "28340",
            "whitelist(address)": "4702",
            "winningProposalId()": "2384"
        }
    }
}