{
    "contractName": "Whitelist",
    "abi": [
        {
            "anonymous": false,
            "inputs": [
                {
                    "indexed": false,
                    "internalType": "address",
                    "name": "_address",
                    "type": "address"
                }
            ],
            "name": "Authorized",
            "type": "event"
        },
        {
            "inputs": [
                {
                    "internalType": "uint256",
                    "name": "",
                    "type": "uint256"
                }
            ],
            "name": "People",
            "outputs": [
                {
                    "internalType": "string",
                    "name": "name",
                    "type": "string"
                },
                {
                    "internalType": "uint256",
                    "name": "age",
                    "type": "uint256"
                }
            ],
            "stateMutability": "view",
            "type": "function"
        },
        {
            "inputs": [
                {
                    "internalType": "address",
                    "name": "_address",
                    "type": "address"
                }
            ],
            "name": "authorize",
            "outputs": [],
            "stateMutability": "nonpayable",
            "type": "function"
        }
    ],
    "bytecode": "608060405234801561001057600080fd5b506102a5806100206000396000f3fe608060405234801561001057600080fd5b50600436106100365760003560e01c8063b6a5d7de1461003b578063c7fb346814610050575b600080fd5b61004e61004936600461018e565b61007a565b005b61006361005e3660046101be565b6100d2565b6040516100719291906101d7565b60405180910390f35b6001600160a01b03811660008181526020818152604091829020805460ff1916600117905590519182527fdc84e3a4c83602050e3865df792a4e6800211a79ac60db94e703a820ce892924910160405180910390a150565b600181815481106100e257600080fd5b906000526020600020906002020160009150905080600001805461010590610234565b80601f016020809104026020016040519081016040528092919081815260200182805461013190610234565b801561017e5780601f106101535761010080835404028352916020019161017e565b820191906000526020600020905b81548152906001019060200180831161016157829003601f168201915b5050505050908060010154905082565b6000602082840312156101a057600080fd5b81356001600160a01b03811681146101b757600080fd5b9392505050565b6000602082840312156101d057600080fd5b5035919050565b604081526000835180604084015260005b8181101561020557602081870181015160608684010152016101e8565b81811115610217576000606083860101525b50602083019390935250601f91909101601f191601606001919050565b600181811c9082168061024857607f821691505b6020821081141561026957634e487b7160e01b600052602260045260246000fd5b5091905056fea2646970667358221220c34ab3ecbe7cc8652555f507ffd31c8f5917140babbb9e4bfa2ee7a8b349838b64736f6c634300080c0033",
    "sourcePath": "c:/Users/yanni/Documents/Formation Alyra/Solidity/Solidity/src/03_WhiteList_autorized.sol",
    "compiler": {
        "name": "solc",
        "version": "0.8.12+commit.f00d7308"
    },
    "functionHashes": {
        "People(uint256)": "c7fb3468",
        "authorize(address)": "b6a5d7de"
    },
    "gasEstimates": {
        "creation": {
            "codeDepositCost": "135400",
            "executionCost": "183",
            "totalCost": "135583"
        },
        "external": {
            "People(uint256)": "infinite",
            "authorize(address)": "25621"
        }
    }
}